:03000000020B6D83
:0C0B6D00787FE4F6D8FD75811D020BB402
:100963000D00416363657373204772616E74656440
:1009730000416363657373204772616E7465640D30
:10098300004163636573732044656E696564004168
:1009930063636573732044656E6965640D00547702
:1009A3006F206368616E6365730054776F206368BB
:1009B300616E6365730D004F6E65206368616E63DE
:1009C30065004F6E65206368616E63650D0041636A
:1009D300636573732044656E696564212100416317
:1009E300636573732044656E69656421210D005747
:1009F30061697420666F722031302073656300571C
:100A030061697420666F72203130207365630D0055
:100A13005761697420666F722033302073656300F9
:100A23005761697420666F72203330207365630DDC
:100A3300005761697420666F7220353020736563D7
:100A4300005761697420666F7220353020736563C7
:100A53000D0052656675736564202121210052657E
:100A63006675736564202121210D00456E746572DE
:0A0A7300207468652070696E3A0077
:0C0DC700011700011D00011603011C04AF
:100D6D00E4FDFCC3ED9FEC9E5015E4FBFA0BBB00BC
:0F0D7D00010ABA04F8BBFBF50DBD00010C80E4C0
:010D8C002244
:050D4B00120D947F0170
:100D5000E4FEEEC39F5015758901758AFE758CA55A
:0C0D6000D28C308DFDC28CC28D0E80E65E
:010D6C002264
:070D8D007F14120D507F01DD
:100D94008FA0C2B5C2B6D2B77F01120D50C2B7221E
:070BF9007BFF750C017D0F6D
:0C0C00008B088A09890A8D0BE50C702511
:100C0C00F50DE50DC3950B5042AB08AA09A90A8551
:100C1C000D82758300120CF3FF120D207F01120D53
:050C2C0050050D80DD04
:100C3100E4F50DE50DC3950B501CAB08AA09A90AF3
:100C4100850D82758300120CF3FF120DB77F01121F
:060C51000D50050D80DDD1
:010C5700227A
:040CB0007BFF7D1039
:080CB4008B118A1289138D14C3
:100CBC00759850758920758DFDD28EE4F515E51566
:100CCC00C39514501CAB11AA12A9138515827583F8
:100CDC0000120CF3F5997F017E00120D6D05158045
:060CEC00DD3099FDC29904
:010CF20022DF
:100DA400759850758920758DFDD28E8F993099FD77
:030DB400C29922BF
:020C58008F0EFD
:100C5A008D10C3E51094307480948040447FC8128C
:100C6A000D94AF10120DB7850E0FC3E50F943074B3
:100C7A0080948040287FC9120D94AF0F120DB7AF30
:100C8A0010120DA4AF0F120DA47BFF7A0979637DB0
:100C9A0001120CB47F28120D50150F80CD1510804B
:060CAA00B17F01020D9470
:10080000E51864327031E5196433702BE51A6434ED
:100810007025E51BB435207F01120D947BFF7A090A
:100820007965E4F50C7D0E120C00D2B47BFF7A09D9
:1008300079747D0E0209427F01120D947BFF7A09C3
:100840007984750C017D0D120C001516D2B37BFF57
:100850007A0979927D0E120CB4C2B3120D8DE51691
:10086000640270187BFF7A0979A1750C017D0B1267
:100870000C007BFF7A0979AD7D0C801CE5166401C4
:1008800070197BFF7A0979BA750C017D0A120C0088
:100890007BFF7A0979C57D0B120CB4120D8DE5161C
:1008A000600302094A151C7A0979D1120BF97A09F9
:1008B00079E1120CB0D2B37F02120D501F120D94C9
:1008C000E51C640370177A0979F2120BF97A0A7938
:1008D00002120CB07F02120D507D308044E51C6482
:1008E00002701D7BFF7A0A7913120BFB7BFF7A0AD9
:1008F00079237D10120CB47F02120D507D328021BD
:10090000E51C640170227BFF7A0A7934120BFB7BB1
:10091000FF7A0A79447D10120CB47F01120D507DCC
:10092000347F39120C58801DE51C70197BFF7A0A40
:100930007955750C017D0B120C007BFF7A0A7961E9
:100940007D0C020CB4751603C2B37BFF7A0A796E74
:10095000750C017D0E120C007FC0120D94E4F51D84
:03096000F5172266
:100D2000AD078DA0D2B5C2B6D2B77F01120D50C2A9
:100D3000B77418251DF8A605051D0517E5176404E9
:0B0D400070087F14120D5012080022F2
:100DB7008FA0D2B5C2B6D2B77F01120D50C2B722EB
:100A7D00C2B3C2B4E4F5A07F38120D4B7F0E120D38
:100A8D004B120D4B7F0C120D4B7F80120D4B7BFFCC
:100A9D007A0A796E750C017D0E120C007F0A120D0B
:100AAD00507FC0120D947F0A120D50C290D291D278
:100ABD0092D29320940A7F31120D207F0A120D508D
:100ACD0020950A7F32120D207F0A120D5020960AB2
:100ADD007F33120D207F0A120D50D290C2912094B7
:100AED000A7F34120D207F0A120D5020950A7F3592
:100AFD00120D207F0A120D5020960A7F36120D20FE
:100B0D007F0A120D50D291C29220940A7F37120D96
:100B1D00207F0A120D5020950A7F38120D207F0A72
:100B2D00120D5020960A7F39120D207F0A120D509A
:100B3D00D292C29320940A7F2A120D207F0A120DA1
:100B4D005020950A7F30120D207F0A120D502096ED
:100B5D000A7F23120D207F0A120D50D293020AB87C
:100B7900020A7DE493A3F8E493A34003F68001F20B
:100B890008DFF48029E493A3F85407240CC8C3337D
:100B9900C4540F4420C8834004F456800146F6DF4C
:100BA900E4800B0102040810204080900DC7E47E08
:100BB900019360BCA3FF543F30E509541FFEE49341
:100BC900A360010ECF54C025E060A840B8E493A308
:100BD900FAE493A3F8E493A3C8C582C8CAC583CA33
:100BE900F0A3C8C582C8CAC583CADFE9DEE780BEEB
:010DD300001F
:100CF300BB010CE58229F582E5833AF583E02250B6
:100D030006E92582F8E622BBFE06E92582F8E222FF
:0D0D1300E58229F582E5833AF583E4932219
:00000001FF
